{
  "_format": "hh-sol-artifact-1",
  "contractName": "SoldiersBootcamp",
  "sourceName": "contracts/soldiersbootcamp.sol",
  "abi": [
    {
      "anonymous": false,
      "inputs": [
        {
          "indexed": false,
          "internalType": "uint256",
          "name": "soldierId",
          "type": "uint256"
        },
        {
          "indexed": false,
          "internalType": "string",
          "name": "name",
          "type": "string"
        },
        {
          "indexed": false,
          "internalType": "uint256",
          "name": "characteristic",
          "type": "uint256"
        }
      ],
      "name": "NewSoldier",
      "type": "event"
    },
    {
      "inputs": [
        {
          "internalType": "string",
          "name": "_name",
          "type": "string"
        }
      ],
      "name": "createRandomSoldier",
      "outputs": [],
      "stateMutability": "nonpayable",
      "type": "function"
    },
    {
      "inputs": [
        {
          "internalType": "uint256",
          "name": "",
          "type": "uint256"
        }
      ],
      "name": "soldierToOwner",
      "outputs": [
        {
          "internalType": "address",
          "name": "",
          "type": "address"
        }
      ],
      "stateMutability": "view",
      "type": "function"
    },
    {
      "inputs": [
        {
          "internalType": "uint256",
          "name": "",
          "type": "uint256"
        }
      ],
      "name": "soldiers",
      "outputs": [
        {
          "internalType": "string",
          "name": "name",
          "type": "string"
        },
        {
          "internalType": "uint256",
          "name": "characteristic",
          "type": "uint256"
        }
      ],
      "stateMutability": "view",
      "type": "function"
    }
  ],
  "bytecode": "0x60806040526010600055600054600a6200001a9190620001be565b6001553480156200002a57600080fd5b506200020f565b7f4e487b7100000000000000000000000000000000000000000000000000000000600052601160045260246000fd5b60008160011c9050919050565b6000808291508390505b6001851115620000bf5780860481111562000097576200009662000031565b5b6001851615620000a75780820291505b8081029050620000b78562000060565b945062000077565b94509492505050565b600082620000da5760019050620001ad565b81620000ea5760009050620001ad565b81600181146200010357600281146200010e5762000144565b6001915050620001ad565b60ff84111562000123576200012262000031565b5b8360020a9150848211156200013d576200013c62000031565b5b50620001ad565b5060208310610133831016604e8410600b84101617156200017e5782820a90508381111562000178576200017762000031565b5b620001ad565b6200018d84848460016200006d565b92509050818404811115620001a757620001a662000031565b5b81810290505b9392505050565b6000819050919050565b6000620001cb82620001b4565b9150620001d883620001b4565b9250620002077fffffffffffffffffffffffffffffffffffffffffffffffffffffffffffffffff8484620000c8565b905092915050565b6109c4806200021f6000396000f3fe608060405234801561001057600080fd5b50600436106100415760003560e01c80637b3097e914610046578063b909b68e14610076578063dfd69644146100a7575b600080fd5b610060600480360381019061005b91906104b1565b6100c3565b60405161006d919061051f565b60405180910390f35b610090600480360381019061008b91906104b1565b6100f6565b60405161009e9291906105e2565b60405180910390f35b6100c160048036038101906100bc9190610747565b6101b2565b005b60036020528060005260406000206000915054906101000a900473ffffffffffffffffffffffffffffffffffffffff1681565b6002818154811061010657600080fd5b9060005260206000209060020201600091509050806000018054610129906107bf565b80601f0160208091040260200160405190810160405280929190818152602001828054610155906107bf565b80156101a25780601f10610177576101008083540402835291602001916101a2565b820191906000526020600020905b81548152906001019060200180831161018557829003601f168201915b5050505050908060010154905082565b6000600460003373ffffffffffffffffffffffffffffffffffffffff1673ffffffffffffffffffffffffffffffffffffffff16815260200190815260200160002054146101fe57600080fd5b600061020982610219565b9050610215828261025e565b5050565b6000808260405160200161022d919061082d565b6040516020818303038152906040528051906020012060001c9050600154816102569190610873565b915050919050565b6002604051806040016040528084815260200183815250908060018154018082558091505060019003906000526020600020906002020160009091909190915060008201518160000190805190602001906102ba9291906103c4565b50602082015181600101555050600060016002805490506102db91906108d3565b9050336003600083815260200190815260200160002060006101000a81548173ffffffffffffffffffffffffffffffffffffffff021916908373ffffffffffffffffffffffffffffffffffffffff160217905550600460003373ffffffffffffffffffffffffffffffffffffffff1673ffffffffffffffffffffffffffffffffffffffff168152602001908152602001600020600081548092919061037f90610907565b91905055507fedd4fa8991ea826acd9e225b0751b373c256f5ed091ba8e8bcd60c7acd1295a58184846040516103b793929190610950565b60405180910390a1505050565b8280546103d0906107bf565b90600052602060002090601f0160209004810192826103f25760008555610439565b82601f1061040b57805160ff1916838001178555610439565b82800160010185558215610439579182015b8281111561043857825182559160200191906001019061041d565b5b509050610446919061044a565b5090565b5b8082111561046357600081600090555060010161044b565b5090565b6000604051905090565b600080fd5b600080fd5b6000819050919050565b61048e8161047b565b811461049957600080fd5b50565b6000813590506104ab81610485565b92915050565b6000602082840312156104c7576104c6610471565b5b60006104d58482850161049c565b91505092915050565b600073ffffffffffffffffffffffffffffffffffffffff82169050919050565b6000610509826104de565b9050919050565b610519816104fe565b82525050565b60006020820190506105346000830184610510565b92915050565b600081519050919050565b600082825260208201905092915050565b60005b83811015610574578082015181840152602081019050610559565b83811115610583576000848401525b50505050565b6000601f19601f8301169050919050565b60006105a58261053a565b6105af8185610545565b93506105bf818560208601610556565b6105c881610589565b840191505092915050565b6105dc8161047b565b82525050565b600060408201905081810360008301526105fc818561059a565b905061060b60208301846105d3565b9392505050565b600080fd5b600080fd5b7f4e487b7100000000000000000000000000000000000000000000000000000000600052604160045260246000fd5b61065482610589565b810181811067ffffffffffffffff821117156106735761067261061c565b5b80604052505050565b6000610686610467565b9050610692828261064b565b919050565b600067ffffffffffffffff8211156106b2576106b161061c565b5b6106bb82610589565b9050602081019050919050565b82818337600083830152505050565b60006106ea6106e584610697565b61067c565b90508281526020810184848401111561070657610705610617565b5b6107118482856106c8565b509392505050565b600082601f83011261072e5761072d610612565b5b813561073e8482602086016106d7565b91505092915050565b60006020828403121561075d5761075c610471565b5b600082013567ffffffffffffffff81111561077b5761077a610476565b5b61078784828501610719565b91505092915050565b7f4e487b7100000000000000000000000000000000000000000000000000000000600052602260045260246000fd5b600060028204905060018216806107d757607f821691505b602082108114156107eb576107ea610790565b5b50919050565b600081905092915050565b60006108078261053a565b61081181856107f1565b9350610821818560208601610556565b80840191505092915050565b600061083982846107fc565b915081905092915050565b7f4e487b7100000000000000000000000000000000000000000000000000000000600052601260045260246000fd5b600061087e8261047b565b91506108898361047b565b92508261089957610898610844565b5b828206905092915050565b7f4e487b7100000000000000000000000000000000000000000000000000000000600052601160045260246000fd5b60006108de8261047b565b91506108e98361047b565b9250828210156108fc576108fb6108a4565b5b828203905092915050565b60006109128261047b565b91507fffffffffffffffffffffffffffffffffffffffffffffffffffffffffffffffff821415610945576109446108a4565b5b600182019050919050565b600060608201905061096560008301866105d3565b8181036020830152610977818561059a565b905061098660408301846105d3565b94935050505056fea2646970667358221220fda63c1a354cd52b9b1961d4bc578f2f8c992125d31bc143be00e55c241312c364736f6c63430008090033",
  "linkReferences": {},
  "deployedLinkReferences": {}
}