{
  "_format": "hh-sol-artifact-1",
  "contractName": "SoldiersPromotion",
  "sourceName": "contracts/soldierspromotion.sol",
  "abi": [
    {
      "anonymous": false,
      "inputs": [
        {
          "indexed": false,
          "internalType": "uint256",
          "name": "soldierId",
          "type": "uint256"
        },
        {
          "indexed": false,
          "internalType": "string",
          "name": "name",
          "type": "string"
        },
        {
          "indexed": false,
          "internalType": "uint256",
          "name": "characteristic",
          "type": "uint256"
        }
      ],
      "name": "NewSoldier",
      "type": "event"
    },
    {
      "inputs": [
        {
          "internalType": "string",
          "name": "_name",
          "type": "string"
        }
      ],
      "name": "createRandomSoldier",
      "outputs": [],
      "stateMutability": "nonpayable",
      "type": "function"
    },
    {
      "inputs": [
        {
          "internalType": "uint256",
          "name": "_soldierId",
          "type": "uint256"
        },
        {
          "internalType": "uint256",
          "name": "_targetCharacteristic",
          "type": "uint256"
        }
      ],
      "name": "promoteAndGetSubordinate",
      "outputs": [],
      "stateMutability": "nonpayable",
      "type": "function"
    },
    {
      "inputs": [
        {
          "internalType": "uint256",
          "name": "",
          "type": "uint256"
        }
      ],
      "name": "soldierToOwner",
      "outputs": [
        {
          "internalType": "address",
          "name": "",
          "type": "address"
        }
      ],
      "stateMutability": "view",
      "type": "function"
    },
    {
      "inputs": [
        {
          "internalType": "uint256",
          "name": "",
          "type": "uint256"
        }
      ],
      "name": "soldiers",
      "outputs": [
        {
          "internalType": "string",
          "name": "name",
          "type": "string"
        },
        {
          "internalType": "uint256",
          "name": "characteristic",
          "type": "uint256"
        }
      ],
      "stateMutability": "view",
      "type": "function"
    }
  ],
  "bytecode": "0x60806040526010600055600054600a6200001a9190620001be565b6001553480156200002a57600080fd5b506200020f565b7f4e487b7100000000000000000000000000000000000000000000000000000000600052601160045260246000fd5b60008160011c9050919050565b6000808291508390505b6001851115620000bf5780860481111562000097576200009662000031565b5b6001851615620000a75780820291505b8081029050620000b78562000060565b945062000077565b94509492505050565b600082620000da5760019050620001ad565b81620000ea5760009050620001ad565b81600181146200010357600281146200010e5762000144565b6001915050620001ad565b60ff84111562000123576200012262000031565b5b8360020a9150848211156200013d576200013c62000031565b5b50620001ad565b5060208310610133831016604e8410600b84101617156200017e5782820a90508381111562000178576200017762000031565b5b620001ad565b6200018d84848460016200006d565b92509050818404811115620001a757620001a662000031565b5b81810290505b9392505050565b6000819050919050565b6000620001cb82620001b4565b9150620001d883620001b4565b9250620002077fffffffffffffffffffffffffffffffffffffffffffffffffffffffffffffffff8484620000c8565b905092915050565b610be7806200021f6000396000f3fe608060405234801561001057600080fd5b506004361061004c5760003560e01c80637b3097e914610051578063b909b68e14610081578063c8efc77e146100b2578063dfd69644146100ce575b600080fd5b61006b600480360381019061006691906105de565b6100ea565b604051610078919061064c565b60405180910390f35b61009b600480360381019061009691906105de565b61011d565b6040516100a992919061070f565b60405180910390f35b6100cc60048036038101906100c7919061073f565b6101d9565b005b6100e860048036038101906100e391906108b4565b6102df565b005b60036020528060005260406000206000915054906101000a900473ffffffffffffffffffffffffffffffffffffffff1681565b6002818154811061012d57600080fd5b90600052602060002090600202016000915090508060000180546101509061092c565b80601f016020809104026020016040519081016040528092919081815260200182805461017c9061092c565b80156101c95780601f1061019e576101008083540402835291602001916101c9565b820191906000526020600020905b8154815290600101906020018083116101ac57829003601f168201915b5050505050908060010154905082565b6003600083815260200190815260200160002060009054906101000a900473ffffffffffffffffffffffffffffffffffffffff1673ffffffffffffffffffffffffffffffffffffffff163373ffffffffffffffffffffffffffffffffffffffff161461024457600080fd5b60006002838154811061025a5761025961095e565b5b906000526020600020906002020190506001548261027891906109bc565b91506000600283836001015461028e9190610a1c565b6102989190610a72565b90506102d96040518060400160405280600781526020017f6e6f206e616d650000000000000000000000000000000000000000000000000081525082610346565b50505050565b6000600460003373ffffffffffffffffffffffffffffffffffffffff1673ffffffffffffffffffffffffffffffffffffffff168152602001908152602001600020541461032b57600080fd5b6000610336826104ac565b90506103428282610346565b5050565b6002604051806040016040528084815260200183815250908060018154018082558091505060019003906000526020600020906002020160009091909190915060008201518160000190805190602001906103a29291906104f1565b50602082015181600101555050600060016002805490506103c39190610aa3565b9050336003600083815260200190815260200160002060006101000a81548173ffffffffffffffffffffffffffffffffffffffff021916908373ffffffffffffffffffffffffffffffffffffffff160217905550600460003373ffffffffffffffffffffffffffffffffffffffff1673ffffffffffffffffffffffffffffffffffffffff168152602001908152602001600020600081548092919061046790610ad7565b91905055507fedd4fa8991ea826acd9e225b0751b373c256f5ed091ba8e8bcd60c7acd1295a581848460405161049f93929190610b20565b60405180910390a1505050565b600080826040516020016104c09190610b9a565b6040516020818303038152906040528051906020012060001c9050600154816104e991906109bc565b915050919050565b8280546104fd9061092c565b90600052602060002090601f01602090048101928261051f5760008555610566565b82601f1061053857805160ff1916838001178555610566565b82800160010185558215610566579182015b8281111561056557825182559160200191906001019061054a565b5b5090506105739190610577565b5090565b5b80821115610590576000816000905550600101610578565b5090565b6000604051905090565b600080fd5b600080fd5b6000819050919050565b6105bb816105a8565b81146105c657600080fd5b50565b6000813590506105d8816105b2565b92915050565b6000602082840312156105f4576105f361059e565b5b6000610602848285016105c9565b91505092915050565b600073ffffffffffffffffffffffffffffffffffffffff82169050919050565b60006106368261060b565b9050919050565b6106468161062b565b82525050565b6000602082019050610661600083018461063d565b92915050565b600081519050919050565b600082825260208201905092915050565b60005b838110156106a1578082015181840152602081019050610686565b838111156106b0576000848401525b50505050565b6000601f19601f8301169050919050565b60006106d282610667565b6106dc8185610672565b93506106ec818560208601610683565b6106f5816106b6565b840191505092915050565b610709816105a8565b82525050565b6000604082019050818103600083015261072981856106c7565b90506107386020830184610700565b9392505050565b600080604083850312156107565761075561059e565b5b6000610764858286016105c9565b9250506020610775858286016105c9565b9150509250929050565b600080fd5b600080fd5b7f4e487b7100000000000000000000000000000000000000000000000000000000600052604160045260246000fd5b6107c1826106b6565b810181811067ffffffffffffffff821117156107e0576107df610789565b5b80604052505050565b60006107f3610594565b90506107ff82826107b8565b919050565b600067ffffffffffffffff82111561081f5761081e610789565b5b610828826106b6565b9050602081019050919050565b82818337600083830152505050565b600061085761085284610804565b6107e9565b90508281526020810184848401111561087357610872610784565b5b61087e848285610835565b509392505050565b600082601f83011261089b5761089a61077f565b5b81356108ab848260208601610844565b91505092915050565b6000602082840312156108ca576108c961059e565b5b600082013567ffffffffffffffff8111156108e8576108e76105a3565b5b6108f484828501610886565b91505092915050565b7f4e487b7100000000000000000000000000000000000000000000000000000000600052602260045260246000fd5b6000600282049050600182168061094457607f821691505b60208210811415610958576109576108fd565b5b50919050565b7f4e487b7100000000000000000000000000000000000000000000000000000000600052603260045260246000fd5b7f4e487b7100000000000000000000000000000000000000000000000000000000600052601260045260246000fd5b60006109c7826105a8565b91506109d2836105a8565b9250826109e2576109e161098d565b5b828206905092915050565b7f4e487b7100000000000000000000000000000000000000000000000000000000600052601160045260246000fd5b6000610a27826105a8565b9150610a32836105a8565b9250827fffffffffffffffffffffffffffffffffffffffffffffffffffffffffffffffff03821115610a6757610a666109ed565b5b828201905092915050565b6000610a7d826105a8565b9150610a88836105a8565b925082610a9857610a9761098d565b5b828204905092915050565b6000610aae826105a8565b9150610ab9836105a8565b925082821015610acc57610acb6109ed565b5b828203905092915050565b6000610ae2826105a8565b91507fffffffffffffffffffffffffffffffffffffffffffffffffffffffffffffffff821415610b1557610b146109ed565b5b600182019050919050565b6000606082019050610b356000830186610700565b8181036020830152610b4781856106c7565b9050610b566040830184610700565b949350505050565b600081905092915050565b6000610b7482610667565b610b7e8185610b5e565b9350610b8e818560208601610683565b80840191505092915050565b6000610ba68284610b69565b91508190509291505056fea2646970667358221220ca2145fb30bfdaa6cd42585ae8cab917da2244765d1850b2c215cc9d741fae6264736f6c63430008090033",
  "linkReferences": {},
  "deployedLinkReferences": {}
}